{
  "_format": "hh-sol-artifact-1",
  "contractName": "BeautyProductManager",
  "sourceName": "contracts/BeautyProductManager.sol",
  "abi": [
    {
      "anonymous": false,
      "inputs": [
        {
          "indexed": false,
          "internalType": "string",
          "name": "product_id",
          "type": "string"
        }
      ],
      "name": "BeautyProductAdded",
      "type": "event"
    },
    {
      "anonymous": false,
      "inputs": [
        {
          "indexed": false,
          "internalType": "string",
          "name": "product_id",
          "type": "string"
        }
      ],
      "name": "ProductUpdated",
      "type": "event"
    },
    {
      "inputs": [
        {
          "internalType": "string",
          "name": "_product_id",
          "type": "string"
        },
        {
          "internalType": "string",
          "name": "_jsonData",
          "type": "string"
        }
      ],
      "name": "addBeautyProduct",
      "outputs": [],
      "stateMutability": "nonpayable",
      "type": "function"
    },
    {
      "inputs": [],
      "name": "getAllLatestProducts",
      "outputs": [
        {
          "internalType": "string[]",
          "name": "",
          "type": "string[]"
        },
        {
          "internalType": "string[]",
          "name": "",
          "type": "string[]"
        }
      ],
      "stateMutability": "view",
      "type": "function"
    },
    {
      "inputs": [
        {
          "internalType": "string",
          "name": "_product_id",
          "type": "string"
        }
      ],
      "name": "getBeautyProduct",
      "outputs": [
        {
          "internalType": "string",
          "name": "",
          "type": "string"
        },
        {
          "internalType": "string",
          "name": "",
          "type": "string"
        }
      ],
      "stateMutability": "view",
      "type": "function"
    },
    {
      "inputs": [],
      "name": "getBeautyProductCount",
      "outputs": [
        {
          "internalType": "uint256",
          "name": "",
          "type": "uint256"
        }
      ],
      "stateMutability": "view",
      "type": "function"
    },
    {
      "inputs": [
        {
          "internalType": "string",
          "name": "_product_id",
          "type": "string"
        }
      ],
      "name": "getProductHistory",
      "outputs": [
        {
          "components": [
            {
              "internalType": "string",
              "name": "jsonData",
              "type": "string"
            },
            {
              "internalType": "uint256",
              "name": "timestamp",
              "type": "uint256"
            }
          ],
          "internalType": "struct BeautyProductManager.BeautyProductVersion[]",
          "name": "",
          "type": "tuple[]"
        }
      ],
      "stateMutability": "view",
      "type": "function"
    },
    {
      "inputs": [
        {
          "internalType": "string",
          "name": "_product_id",
          "type": "string"
        },
        {
          "internalType": "string",
          "name": "_jsonData",
          "type": "string"
        }
      ],
      "name": "updateProduct",
      "outputs": [],
      "stateMutability": "nonpayable",
      "type": "function"
    }
  ],
  "bytecode": "0x608060405234801561001057600080fd5b506113fd806100206000396000f3fe608060405234801561001057600080fd5b50600436106100625760003560e01c80632a450ba714610067578063400a2a011461008357806349e6153a146100a15780635fa0cc0d146100bd578063d4f50453146100ee578063ec0e5e3c1461011e575b600080fd5b610081600480360381019061007c9190610af1565b61013d565b005b61008b610252565b6040516100989190610b82565b60405180910390f35b6100bb60048036038101906100b69190610af1565b61025e565b005b6100d760048036038101906100d29190610b9d565b610333565b6040516100e5929190610c65565b60405180910390f35b61010860048036038101906101039190610b9d565b610516565b6040516101159190610df4565b60405180910390f35b61012661068b565b604051610134929190610ed8565b60405180910390f35b600061014883610916565b90506000805490508110610191576040517f08c379a000000000000000000000000000000000000000000000000000000000815260040161018890610f5b565b60405180910390fd5b600081815481106101a5576101a4610f7b565b5b90600052602060002090600202016001016040518060400160405280848152602001428152509080600181540180825580915050600190039060005260206000209060020201600090919091909150600082015181600001908161020991906111b6565b506020820151816001015550507f4715e71e173cf1d6b6520d14d27288495caf68a395138f2c31bcd7c4c8a6938c836040516102459190611288565b60405180910390a1505050565b60008080549050905090565b60008060018160018154018082558091505003906000526020600020906002020190508281600001908161029291906111b6565b5080600101604051806040016040528084815260200142815250908060018154018082558091505060019003906000526020600020906002020160009091909190915060008201518160000190816102ea91906111b6565b506020820151816001015550507fd8a92ece77ce646b830bd20941c48fbf6bcf4b14054370f5e7d5ab135eab4d69836040516103269190611288565b60405180910390a1505050565b606080600061034184610916565b9050600080549050811061038a576040517f08c379a000000000000000000000000000000000000000000000000000000000815260040161038190610f5b565b60405180910390fd5b600080828154811061039f5761039e610f7b565b5b90600052602060002090600202019050600081600101600183600101805490506103c991906112d9565b815481106103da576103d9610f7b565b5b9060005260206000209060020201905081600001816000018180546103fe90610fd9565b80601f016020809104026020016040519081016040528092919081815260200182805461042a90610fd9565b80156104775780601f1061044c57610100808354040283529160200191610477565b820191906000526020600020905b81548152906001019060200180831161045a57829003601f168201915b5050505050915080805461048a90610fd9565b80601f01602080910402602001604051908101604052809291908181526020018280546104b690610fd9565b80156105035780601f106104d857610100808354040283529160200191610503565b820191906000526020600020905b8154815290600101906020018083116104e657829003601f168201915b5050505050905094509450505050915091565b6060600061052383610916565b9050600080549050811061056c576040517f08c379a000000000000000000000000000000000000000000000000000000000815260040161056390610f5b565b60405180910390fd5b600081815481106105805761057f610f7b565b5b9060005260206000209060020201600101805480602002602001604051908101604052809291908181526020016000905b8282101561067f57838290600052602060002090600202016040518060400160405290816000820180546105e490610fd9565b80601f016020809104026020016040519081016040528092919081815260200182805461061090610fd9565b801561065d5780601f106106325761010080835404028352916020019161065d565b820191906000526020600020905b81548152906001019060200180831161064057829003601f168201915b50505050508152602001600182015481525050815260200190600101906105b1565b50505050915050919050565b6060806000808054905067ffffffffffffffff8111156106ae576106ad6109c6565b5b6040519080825280602002602001820160405280156106e157816020015b60608152602001906001900390816106cc5790505b5090506000808054905067ffffffffffffffff811115610704576107036109c6565b5b60405190808252806020026020018201604052801561073757816020015b60608152602001906001900390816107225790505b50905060005b60008054905081101561090957600080828154811061075f5761075e610f7b565b5b9060005260206000209060020201905080600001805461077e90610fd9565b80601f01602080910402602001604051908101604052809291908181526020018280546107aa90610fd9565b80156107f75780601f106107cc576101008083540402835291602001916107f7565b820191906000526020600020905b8154815290600101906020018083116107da57829003601f168201915b505050505084838151811061080f5761080e610f7b565b5b6020026020010181905250806001016001826001018054905061083291906112d9565b8154811061084357610842610f7b565b5b9060005260206000209060020201600001805461085f90610fd9565b80601f016020809104026020016040519081016040528092919081815260200182805461088b90610fd9565b80156108d85780601f106108ad576101008083540402835291602001916108d8565b820191906000526020600020905b8154815290600101906020018083116108bb57829003601f168201915b50505050508383815181106108f0576108ef610f7b565b5b602002602001018190525050808060010191505061073d565b5081819350935050509091565b600080600090505b6000805490508110156109885782805190602001206000828154811061094757610946610f7b565b5b906000526020600020906002020160000160405161096591906113b0565b60405180910390200361097b5780915050610992565b808060010191505061091e565b5060008054905090505b919050565b6000604051905090565b600080fd5b600080fd5b600080fd5b600080fd5b6000601f19601f8301169050919050565b7f4e487b7100000000000000000000000000000000000000000000000000000000600052604160045260246000fd5b6109fe826109b5565b810181811067ffffffffffffffff82111715610a1d57610a1c6109c6565b5b80604052505050565b6000610a30610997565b9050610a3c82826109f5565b919050565b600067ffffffffffffffff821115610a5c57610a5b6109c6565b5b610a65826109b5565b9050602081019050919050565b82818337600083830152505050565b6000610a94610a8f84610a41565b610a26565b905082815260208101848484011115610ab057610aaf6109b0565b5b610abb848285610a72565b509392505050565b600082601f830112610ad857610ad76109ab565b5b8135610ae8848260208601610a81565b91505092915050565b60008060408385031215610b0857610b076109a1565b5b600083013567ffffffffffffffff811115610b2657610b256109a6565b5b610b3285828601610ac3565b925050602083013567ffffffffffffffff811115610b5357610b526109a6565b5b610b5f85828601610ac3565b9150509250929050565b6000819050919050565b610b7c81610b69565b82525050565b6000602082019050610b976000830184610b73565b92915050565b600060208284031215610bb357610bb26109a1565b5b600082013567ffffffffffffffff811115610bd157610bd06109a6565b5b610bdd84828501610ac3565b91505092915050565b600081519050919050565b600082825260208201905092915050565b60005b83811015610c20578082015181840152602081019050610c05565b60008484015250505050565b6000610c3782610be6565b610c418185610bf1565b9350610c51818560208601610c02565b610c5a816109b5565b840191505092915050565b60006040820190508181036000830152610c7f8185610c2c565b90508181036020830152610c938184610c2c565b90509392505050565b600081519050919050565b600082825260208201905092915050565b6000819050602082019050919050565b600082825260208201905092915050565b6000610ce482610be6565b610cee8185610cc8565b9350610cfe818560208601610c02565b610d07816109b5565b840191505092915050565b610d1b81610b69565b82525050565b60006040830160008301518482036000860152610d3e8282610cd9565b9150506020830151610d536020860182610d12565b508091505092915050565b6000610d6a8383610d21565b905092915050565b6000602082019050919050565b6000610d8a82610c9c565b610d948185610ca7565b935083602082028501610da685610cb8565b8060005b85811015610de25784840389528151610dc38582610d5e565b9450610dce83610d72565b925060208a01995050600181019050610daa565b50829750879550505050505092915050565b60006020820190508181036000830152610e0e8184610d7f565b905092915050565b600081519050919050565b600082825260208201905092915050565b6000819050602082019050919050565b6000610e4e8383610cd9565b905092915050565b6000602082019050919050565b6000610e6e82610e16565b610e788185610e21565b935083602082028501610e8a85610e32565b8060005b85811015610ec65784840389528151610ea78582610e42565b9450610eb283610e56565b925060208a01995050600181019050610e8e565b50829750879550505050505092915050565b60006040820190508181036000830152610ef28185610e63565b90508181036020830152610f068184610e63565b90509392505050565b7f50726f6475637420646f6573206e6f7420657869737400000000000000000000600082015250565b6000610f45601683610bf1565b9150610f5082610f0f565b602082019050919050565b60006020820190508181036000830152610f7481610f38565b9050919050565b7f4e487b7100000000000000000000000000000000000000000000000000000000600052603260045260246000fd5b7f4e487b7100000000000000000000000000000000000000000000000000000000600052602260045260246000fd5b60006002820490506001821680610ff157607f821691505b60208210810361100457611003610faa565b5b50919050565b60008190508160005260206000209050919050565b60006020601f8301049050919050565b600082821b905092915050565b60006008830261106c7fffffffffffffffffffffffffffffffffffffffffffffffffffffffffffffffff8261102f565b611076868361102f565b95508019841693508086168417925050509392505050565b6000819050919050565b60006110b36110ae6110a984610b69565b61108e565b610b69565b9050919050565b6000819050919050565b6110cd83611098565b6110e16110d9826110ba565b84845461103c565b825550505050565b600090565b6110f66110e9565b6111018184846110c4565b505050565b5b818110156111255761111a6000826110ee565b600181019050611107565b5050565b601f82111561116a5761113b8161100a565b6111448461101f565b81016020851015611153578190505b61116761115f8561101f565b830182611106565b50505b505050565b600082821c905092915050565b600061118d6000198460080261116f565b1980831691505092915050565b60006111a6838361117c565b9150826002028217905092915050565b6111bf82610be6565b67ffffffffffffffff8111156111d8576111d76109c6565b5b6111e28254610fd9565b6111ed828285611129565b600060209050601f831160018114611220576000841561120e578287015190505b611218858261119a565b865550611280565b601f19841661122e8661100a565b60005b8281101561125657848901518255600182019150602085019450602081019050611231565b86831015611273578489015161126f601f89168261117c565b8355505b6001600288020188555050505b505050505050565b600060208201905081810360008301526112a28184610c2c565b905092915050565b7f4e487b7100000000000000000000000000000000000000000000000000000000600052601160045260246000fd5b60006112e482610b69565b91506112ef83610b69565b9250828203905081811115611307576113066112aa565b5b92915050565b600081905092915050565b60008190508160005260206000209050919050565b6000815461133a81610fd9565b611344818661130d565b9450600182166000811461135f5760018114611374576113a7565b60ff19831686528115158202860193506113a7565b61137d85611318565b60005b8381101561139f57815481890152600182019150602081019050611380565b838801955050505b50505092915050565b60006113bc828461132d565b91508190509291505056fea26469706673582212204e9233ac72dcbed570d2017d0ea30cf82def4725d16b7322e86485cfa029d77764736f6c63430008180033",
  "linkReferences": {},
  "deployedLinkReferences": {}
}